:020000040800F2
:10000000002800206D1A0008311800083718000871
:100010003D180008431800084918000800000000B7
:100020000000000000000000000000004F18000861
:100030005B1800080000000067180008731800082B
:10004000B51A0008B51A0008B51A0008B51A000854
:10005000B51A0008B51A0008B51A0008B51A000844
:10006000B51A0008B51A0008B51A0008B51A000834
:10007000B51A0008B51A0008B51A0008B51A000824
:10008000B51A0008B51A0008B51A0008B51A000814
:10009000B51A0008B51A0008B51A0008B51A000804
:1000A000B51A0008B51A0008B51A0008B51A0008F4
:1000B00081180008B51A000800000000B51A0008F1
:1000C000B51A00080000000000000000B51A000882
:1000D00000000000B51A0008B51A00080000000072
:1000E000B51A0008B51A0008B51A0008000000008B
:1000F0000000000000000000000000000000000000
:0C01000000000000000000005FF808F1A3
:10010C0010B5054C237833B9044B13B10448AFF345
:10011C0000800123237010BD24000020000000008B
:10012C00E430000808B5034B1BB103490348AFF397
:10013C00008008BD0000000028000020E43000080A
:10014C0080B500AF304B1B680E2B02D00F2B2BD081
:10015C0058E01121122001F0B7F81021132001F002
:10016C00B3F8022000F048FD0346002B02D0264BCA
:10017C000F221A60002000F03FFD0346002B3ED0FA
:10018C00214B05221A6001F0BDF9642001F0D6FB69
:10019C00322001F0BFFB1D4B00221A601C4B0022C9
:1001AC001A6000F0E1FE2AE01121132001F08CF816
:1001BC001021122001F088F8012000F01DFD0346EB
:1001CC00002B02D0104B0E221A60002000F014FD00
:1001DC000346002B15D00C4B05221A6001F092F946
:1001EC00642001F0ABFB322001F094FB074B0022A2
:1001FC001A60074B00221A6000F0B6FE01E000BF47
:10020C0000E000BF00BF80BD0000002060000020A7
:10021C005C00002080B500AF00F060FFB04B1B68A5
:10022C00013B032B00F2C88001A252F823F000BF5F
:10023C004D02000891020008F70200086103000853
:10024C00322001F067FB4FF0FF3001F077FB6420A8
:10025C0001F088FB01F0DAF801F054F9A04B02220E
:10026C001A60A04B1B68642202FB03F3184601F0D2
:10027C003DFB9D4B00221A609C4B00221A6000F043
:10028C007BFFA0E01121122001F01EF8984B1B6897
:10029C00002B0AD0924B03221A60924B5B686422AB
:1002AC0002FB03F3184601F021FB002000F0A4FC34
:1002BC000346002B00F08280894B0E221A608D4B76
:1002CC0000221A604FF0FF3001F04CFB4FF0FF3072
:1002DC0001F00CFB4FF0FF3001F0F4FA4FF0FF305F
:1002EC0001F018FB00F040FE68E01121132000F033
:1002FC00EBFF7F4B1B68002B0AD0794B04221A6052
:10030C00784B9B68642202FB03F3184601F0EEFA6B
:10031C00002000F071FC0346002B51D0002000F0AF
:10032C006BFC6F4B0E221A60724B00221A604FF05E
:10033C00FF3001F017FB4FF0FF3001F0D7FA4FF010
:10034C00FF3001F0BFFA4FF0FF3001F0E3FA00F09C
:10035C000BFE35E01121142000F0B6FF644B1B6836
:10036C00002B0AD05E4B02221A605E4B1B68642283
:10037C0002FB03F3184601F0B9FA002000F03CFC34
:10038C000346002B1ED0564B0E221A60594B0022EE
:10039C001A604FF0FF3001F0E5FA4FF0FF3001F03A
:1003AC00A5FA4FF0FF3001F08DFA4FF0FF3001F05D
:1003BC00B1FA00F0D9FD05E000BF04E000BF02E097
:1003CC0000BF00E000BF4B4B1B68013B032B00F24E
:1003DC00CD8001A252F823F0F503000815040008A3
:1003EC00870400080905000801F010F801F08AF8EC
:1003FC00404B03221A603B4B5B68642202FB03F305
:10040C00184601F05FFAB8E01021122000F05CFFF2
:10041C00394B1B68002B10D0364B03221A60314B22
:10042C005B68642202FB03F3184601F04BFA2E4B77
:10043C0000221A602D4B00221A60002000F0DCFB19
:10044C000346002B00F09480254B0E221A60294B9A
:10045C0000221A604FF0FF3001F084FA4FF0FF30A9
:10046C0001F044FA4FF0FF3001F02CFA4FF0FF305E
:10047C0001F050FA00F078FD7AE01021132000F022
:10048C0023FF1D4B1B68002B0AD01A4B04221A6049
:10049C00144B9B68642202FB03F3184601F012FA1A
:1004AC00002000F0A9FB0346002B63D00C4B0E225E
:1004BC001A60104B00221A604FF0FF3001F052FA14
:1004CC004FF0FF3001F012FA4FF0FF3001F0FAF963
:1004DC004FF0FF3001F01EFA00F046FD4AE000BF7D
:1004EC0000000020080000205C00002060000020BC
:1004FC00740000200400002078000020102114203B
:10050C0000F0E2FE364B1B68002B10D0354B02225C
:10051C001A60354B1B68642202FB03F3184601F08A
:10052C00D1F9324B02221A60314B00221A600020A2
:10053C0000F062FB0346002B1ED02E4B0E221A60DD
:10054C00284B00221A604FF0FF3001F00BFA4FF0ED
:10055C00FF3001F0CBF94FF0FF3001F0B3F94FF061
:10056C00FF3001F0D7F900F0FFFC05E000BF04E01C
:10057C0000BF02E000BF00E000BF1F4B1B68002B58
:10058C002BD0184B1B68002B27D0322001F0C2F95E
:10059C00174B1B68194A52F82330184600F04AFBD7
:1005AC00124B1B68184600F04FFD104B1B680133B3
:1005BC005A4203F0030302F0030258BF53420B4AA2
:1005CC0013600B4B1B6801335A4203F0030302F018
:1005DC00030258BF5342064A136000BF80BD00BFE0
:1005EC00780000200400002008000020600000209B
:1005FC005C000020000000207C0000209C000020FB
:10060C0080B500AFB14B1B68053B082B00F2508244
:10061C0001A252F823F000BF49060008EB060008BF
:10062C0075070008B70700084D080008F508000812
:10063C003B090008D30900085B0A0008122000F0EF
:10064C0011FFA34B1B681946052000F0EBFD0020A1
:10065C0000F0D2FA0346002B04D000F053FF9B4B62
:10066C0008221A60012000F0C7FA0346002B08D0BC
:10067C00964B06221A60974B00221A60964B00226A
:10068C001A60964B1B68002B00F00182322001F09F
:10069C0041F9904B1B68924A52F82330184600F0EF
:1006AC00C9FA8D4B1B68184600F0CEFC8A4B1B68B0
:1006BC0001335A4203F0030302F0030258BF5342C2
:1006CC00854A1360834B1B6801335A4203F00303C2
:1006DC0002F0030258BF53427E4A1360D7E1012057
:1006EC0000F08AFA0346002B07D0794B1B685A1C82
:1006FC0077490A60184600F079FC022000F07CFA79
:10070C000346002B02D0714B07221A60734B1B68F7
:10071C00002B00F0BE81322001F0FCF86D4B1B6801
:10072C006F4A52F82330184600F084FA6A4B1B6863
:10073C00184600F089FC684B1B6801335A4203F0E1
:10074C00030302F0030258BF5342634A1360614B28
:10075C001B6801335A4203F0030302F0030258BF33
:10076C0053425C4A136094E1594B1B68002B08D030
:10077C00574B1B681946002000F036FE544B0022E4
:10078C001A60002000F038FA0346002B02D04F4BC1
:10079C0005221A60012000F02FFA0346002B00F00E
:1007AC007A814A4B06221A6075E1132000F05AFE3A
:1007BC004C4B1B681946082000F034FD002000F05B
:1007CC001BFA0346002B04D000F09CFE3F4B0B227F
:1007DC001A60012000F010FA0346002B02D03B4BAC
:1007EC0009221A603D4B1B68002B00F05681322009
:1007FC0001F090F8374B1B68394A52F823301846F1
:10080C0000F018FA344B1B68184600F01DFC324BF4
:10081C001B6801335A4203F0030302F0030258BF72
:10082C0053422D4A13602B4B1B6801335A4203F081
:10083C00030302F0030258BF5342264A13602CE113
:10084C00012000F0D9F90346002B07D0254B1B687B
:10085C005A1C24490A60184600F0C8FB022000F01C
:10086C00CBF90346002B02D0184B0A221A601B4B03
:10087C001B68002B00F01381322001F04BF8154B54
:10088C001B68174A52F82330184600F0D3F9124B64
:10089C001B68184600F0D8FB0F4B1B6801335A42FB
:1008AC0003F0030302F0030258BF53420A4A1360D9
:1008BC00084B1B6801335A4203F0030302F0030296
:1008CC0058BF5342034A1360E9E000BF0000002008
:1008DC00500000205C000020600000207C00002004
:1008EC004000002054000020724B1B68002B08D0E5
:1008FC00704B1B681946012000F076FD6D4B0022F1
:10090C001A60002000F078F90346002B04D000F0A8
:10091C00F9FD694B08221A60012000F06DF90346BD
:10092C00002B00F0BE80644B09221A60B9E0142041
:10093C0000F098FD614B1B6819460B2000F072FC0F
:10094C00002000F059F90346002B05D05A4B012228
:10095C001A605B4B01221A60012000F04DF903462E
:10096C00002B02D0544B0C221A60564B1B68002BE8
:10097C0000F09980322000F0CDFF534B1B68534A96
:10098C0052F82330184600F055F9514B1B681846A5
:10099C0000F05AFB4E4B1B6801335A4203F0030321
:1009AC0002F0030258BF5342494A1360464B1B687E
:1009BC0001335A4203F0030302F0030258BF5342BF
:1009CC00414A13606FE0012000F016F90346002B3A
:1009DC0007D03A4B1B685A1C38490A60184600F07D
:1009EC0005FB022000F008F90346002B02D0324B25
:1009FC000D221A60334B1B68002B56D0322000F0AE
:100A0C0089FF314B1B68314A52F82330184600F0ED
:100A1C0011F92F4B1B68184600F016FB2C4B1B686A
:100A2C0001335A4203F0030302F0030258BF53424E
:100A3C00274A1360244B1B6801335A4203F003030B
:100A4C0002F0030258BF53421F4A13602DE01B4BA8
:100A5C001B68002B08D0194B1B681946022000F0AC
:100A6C00C3FC164B00221A60002000F0C5F80346A8
:100A7C00002B02D0104B0B221A60012000F0BCF8A6
:100A8C000346002B13D00C4B0C221A600FE000BF56
:100A9C000EE000BF0CE000BF0AE000BF08E000BFA2
:100AAC0006E000BF04E000BF02E000BF00E000BFB2
:100ABC0000BF80BD54000020000000205800002022
:100ACC00040000207C0000205C000020400000207E
:100ADC006000002080B582B000AF00237B6076E020
:100AEC003F4A7B68134419783E4A7B6813440A4694
:100AFC001A703D4A7B6813441978394A7B68134451
:100B0C000A461A707B68022B1DD07B68022B24DCF2
:100B1C007B68002B03D07B68012B0AD01DE04FF4BF
:100B2C000051324801F0ACFA03461A462E4B1A70AB
:100B3C0014E04FF480412D4801F0A2FA03461A4606
:100B4C00294B5A700AE04FF40041284801F098FAFA
:100B5C0003461A46244B9A7000E000BF214A7B687A
:100B6C0013441A781E497B680B441B789A422BD18C
:100B7C001B4A7B6813441A781B497B680B441B780F
:100B8C009A4221D11A4A7B6813441A7816497B6819
:100B9C000B441B789A4217D0134A7B68134419787C
:100BAC00134A7B6813440A461A700F4A7B68134435
:100BBC001B78002B08D10C4A7B68134419780D4A1A
:100BCC007B6813440A461A707B6801337B607B6830
:100BDC00022B85DD00BF00BF0837BD4680BD00BFBE
:100BEC0068000020640000206C0000200010014010
:100BFC00700000201400002080B483B000AF0346C6
:100C0C00FB71FB79022B01D900230BE0FB79084A1D
:100C1C00D35C002B05D1FB79054A0121D15401236A
:100C2C0000E0002318460C37BD4680BC704700BF5F
:100C3C001400002080B582B000AF78607B68092B6F
:100C4C0000F28A8101A252F823F000BF810C000847
:100C5C00CB0C0008150D00085F0D0008A90D00084D
:100C6C00F30D00083D0E0008870E0008D10E000899
:100C7C001B0F000800220421BA4801F018FA0022C8
:100C8C000821B84801F013FA00221021B54801F0F0
:100C9C000EFA00222021B34801F009FA002240216B
:100CAC00B04801F004FA00228021AE4801F0FFF9AF
:100CBC0001224FF48071AB4801F0F9F94DE10122AA
:100CCC000421A84801F0F3F900220821A54801F0FD
:100CDC00EEF900221021A34801F0E9F901222021AC
:100CEC00A04801F0E4F9012240219E4801F0DFF90F
:100CFC00012280219B4801F0DAF901224FF4807126
:100D0C00984801F0D4F928E100220421954801F01B
:100D1C00CEF900220821934801F0C9F901221021D3
:100D2C00904801F0C4F9002220218E4801F0BFF94F
:100D3C00002240218B4801F0BAF901228021894818
:100D4C0001F0B5F900224FF48071864801F0AFF93B
:100D5C0003E100220421834801F0A9F900220821B3
:100D6C00804801F0A4F9002210217E4801F09FF97F
:100D7C00002220217B4801F09AF901224021794878
:100D8C0001F095F901228021764801F090F90022BA
:100D9C004FF48071734801F08AF9DEE001220421DE
:100DAC00704801F084F9002208216E4801F07FF9A7
:100DBC00002210216B4801F07AF9012220216948A8
:100DCC0001F075F901224021664801F070F900220A
:100DDC008021644801F06BF900224FF48071614866
:100DEC0001F065F9B9E0002204215E4801F05FF9D9
:100DFC00012208215B4801F05AF9002210215948C0
:100E0C0001F055F900222021564801F050F9012239
:100E1C004021544801F04BF900228021514801F047
:100E2C0046F900224FF480714E4801F040F994E0ED
:100E3C00002204214B4801F03AF9012208214948CB
:100E4C0001F035F900221021464801F030F900225A
:100E5C002021444801F02BF900224021414801F0A7
:100E6C0026F9002280213F4801F021F900224FF49D
:100E7C0080713C4801F01BF96FE0002204213948D5
:100E8C0001F015F900220821364801F010F9002272
:100E9C001021344801F00BF901222021314801F0D6
:100EAC0006F9012240212F4801F001F9012280218D
:100EBC002C4801F0FCF801224FF48071294801F014
:100ECC00F6F84AE000220421264801F0F0F800224E
:100EDC000821244801F0EBF800221021214801F0F0
:100EEC00E6F8002220211F4801F0E1F80022402101
:100EFC001C4801F0DCF8002280211A4801F0D7F8D8
:100F0C0000224FF48071174801F0D1F825E000223F
:100F1C000421144801F0CBF800220821114801F0FB
:100F2C00C6F8002210210F4801F0C1F80022202140
:100F3C000C4801F0BCF8012240210A4801F0B7F836
:100F4C0000228021074801F0B2F800224FF4807192
:100F5C00044801F0ACF800E000BF00BF0837BD4604
:100F6C0080BD00BF0008014080B500AF0122042104
:100F7C001C4801F09CF8012208211A4801F097F84E
:100F8C0001221021174801F092F801222021154866
:100F9C0001F08DF801224021124801F088F801225D
:100FAC008021104801F083F801224FF480710D4824
:100FBC0001F07DF8012240210B4801F078F8012264
:100FCC008021094801F073F801224FF48071064822
:100FDC0001F06DF801224FF40071034801F067F83D
:100FEC0000BF80BD00080140000C014080B483B0FC
:100FFC0000AF78607B68092B06DC114B00221A606D
:10100C000F4A7B68536016E07B680E4A82FB031222
:10101C009210DB17D31A0A4A13607968094B83FBC9
:10102C0001239A10CB17D21A13469B0013445B0072
:10103C00CA1A034B5A6000BF0C37BD4680BC7047C0
:10104C00400000206766666680B582B000AF7860AD
:10105C0001224021204801F02AF8012280211E485B
:10106C0001F025F801224FF480711B4801F01FF8A4
:10107C0001224FF40071184801F019F87B68032B1A
:10108C0024D801A252F823F0A5100008B1100008D2
:10109C00BD100008CB100008002240210E4801F0C2
:1010AC0006F814E0002280210B4801F000F80EE055
:1010BC0000224FF48071084800F0F9FF07E000228D
:1010CC004FF40071044800F0F2FF00E000BF00BFD5
:1010DC000837BD4680BD00BF000C014080B500AF95
:1010EC00234B1B68002B40D0642000F03BFC214BB1
:1010FC005B68013B1F4A53601E4BDB68013B1D4A7A
:10110C00D3601C4B1B68002B06DC1A4B5B68002B56
:10111C0002DC00F031F80BE0164B5B68002B07DCAF
:10112C00144B1B68013B134A1360124B09225A6083
:10113C00104B9B68002B0CDC0E4BDB68002B08DC87
:10114C000C4B1B680B4A93600A4B5B68094AD360D3
:10115C000BE0084BDB68002B07DC064B9B68013B64
:10116C00044A9360034B0922DA6000BF80BD00BFC4
:10117C00840000209C00002080B400AF264B1B682C
:10118C00092B07DC254B00221A60234B1B68234AD2
:10119C00536018E0204B1B68214A82FB031292100B
:1011AC00DB17D31A1D4A13601B4B19681C4B83FBAE
:1011BC0001239A10CB17D21A13469B0013445B00E1
:1011CC00CA1A164B5A60144B5B68092B07DC134B7D
:1011DC0000229A60104B5B68104AD36018E00E4BEB
:1011EC005B680F4A82FB03129210DB17D31A0B4A6F
:1011FC009360094B59680A4B83FB01239A10CB1758
:10120C00D21A13469B0013445B00CA1A034BDA60D4
:10121C0000BFBD4680BC7047080000209C00002029
:10122C006766666680B483B000AF786039603B68EF
:10123C00092B06DC224B00221A60214A3B685360C2
:10124C0016E03B681F4A82FB03129210DB17D31A7D
:10125C001B4A136039681B4B83FB01239A10CB1775
:10126C00D21A13469B0013445B00CA1A144B5A60E3
:10127C007B680B2B10D07B680B2B1BDC7B68052B46
:10128C0003D07B68082B0ED014E00D4B00229A6023
:10129C000B4B0122DA600EE0094B00229A60084BDE
:1012AC000322DA6007E0064B00229A60044B02220C
:1012BC00DA6000E000BF00BF0C37BD4680BC704751
:1012CC00400000206766666680B582B000AF78602B
:1012DC0039603B68102B03D03B68112B3FD07DE06D
:1012EC007B68142B29D07B68142B36DC7B68122B83
:1012FC0003D07B68132B10D02FE001220421394836
:10130C0000F0D5FE00220121364800F0D0FE00226C
:10131C000221344800F0CBFE20E0002204213148A9
:10132C0000F0C5FE012201212E4800F0C0FE002273
:10133C0002212C4800F0BBFE10E0002204212948B9
:10134C0000F0B5FE00220121264800F0B0FE01227B
:10135C000221244800F0ABFE00E000BF3EE07B68B9
:10136C00142B29D07B68142B36DC7B68122B03D012
:10137C007B68132B10D02FE001220821194800F0B4
:10138C0096FE00222021174800F091FE0022102129
:10139C00144800F08CFE20E000220821114800F0D7
:1013AC0086FE012220210F4800F081FE0022102130
:1013BC000C4800F07CFE10E000220821094800F0E7
:1013CC0076FE00222021074800F071FE0122102138
:1013DC00044800F06CFE00E000BF00BF00BF0837FF
:1013EC00BD4680BD000C014080B483B000AF786076
:1013FC00396005497B683A6841F8232000BF0C37F7
:10140C00BD4680BC704700BF0800002080B400AF10
:10141C00134B1B68632BA8BF6323114A1360104B3B
:10142C001B68022BB8BF02230D4A13600C4B5A6881
:10143C000B4B1B689A4203DB094B1B68013B01E019
:10144C00074B5B68064A5360054B1A68044B5B6894
:10145C00D31A034A936000BFBD4680BC704700BFDF
:10146C000800002080B582B000AF78607B68142B38
:10147C0019D07B68142B36DC7B68122B03D07B686D
:10148C00132B20D02FE01D4B1B68002B2DD064207C
:10149C0000F054FA08211A4800F021FE04211848E3
:1014AC0000F01DFE21E0154B1B68002B1FD06420A3
:1014BC0000F044FA1021124800F011FE02211048ED
:1014CC0000F00DFE13E00D4B1B68002B11D06420B7
:1014DC0000F034FA20210A4800F001FE01210848EE
:1014EC0000F0FDFD05E000BF04E000BF02E000BF1E
:1014FC0000E000BF00BF0837BD4680BD8000002063
:10150C00000C014080B500AF002204210E4800F011
:10151C00CEFD002201210C4800F0C9FD0022022161
:10152C00094800F0C4FD00220821074800F0BFFD67
:10153C0000222021044800F0BAFD002210210248AC
:10154C0000F0B5FD00BF80BD000C014080B500AFC0
:10155C0000F0ACFA00F010F800F096F800F048F843
:10156C00044801F001FAFEF755FEFEF7E9FDFFF71E
:10157C0047F8F8E7AC00002080B590B000AF07F159
:10158C00180328220021184601F09EFD3B1D002265
:10159C001A605A609A60DA601A610223BB610123F7
:1015AC00BB621023FB6200237B6307F11803184610
:1015BC0000F0AEFD0346002B01D000F0D7F80F234E
:1015CC007B600023BB600023FB6000233B61002396
:1015DC007B613B1D0021184601F01AF80346002BD5
:1015EC0001D000F0C3F800BF4037BD4680BD0000FD
:1015FC0080B586B000AF07F1080300221A605A606C
:10160C009A60DA603B4600221A605A601D4B4FF01C
:10161C0080421A601B4B41F63F725A60194B0022F4
:10162C009A60184B0922DA60164B00221A61154B8E
:10163C0000229A61134801F047F90346002B01D0B0
:10164C0000F094F84FF48053BB6007F1080319467F
:10165C000C4801F0C5FA0346002B01D000F086F8C7
:10166C0000233B6000237B603B461946054801F094
:10167C009DFC0346002B01D000F078F800BF183712
:10168C00BD4680BDAC00002080B588B000AF07F12E
:10169C00100300221A605A609A60DA602F4B9B6923
:1016AC002E4A43F0100393612C4B9B6903F01003FB
:1016BC00FB60FB68294B9B69284A43F00403936148
:1016CC00264B9B6903F00403BB60BB68234B9B69EF
:1016DC00224A43F008039361204B9B6903F00803F3
:1016EC007B607B6800224CF2FE111D4800F0DFFC91
:1016FC00002240F2FF311B4800F0D9FC4FF460434C
:10170C003B6100237B610123BB6107F11003194688
:10171C00154800F03BFB4CF2FE133B6101237B614F
:10172C000023BB610223FB6107F1100319460C482F
:10173C0000F02CFB40F2FF333B6101237B61002363
:10174C00BB610223FB6107F110031946054800F049
:10175C001DFB00BF2037BD4680BD00BF00100240FE
:10176C0000080140000C01400010014080B400AFA3
:10177C0072B600BFFEE7000080B485B000AF154B19
:10178C009B69144A43F001039361124B9B6903F06C
:10179C000103BB60BB680F4BDB690E4A43F08053FF
:1017AC00D3610C4BDB6903F080537B607B680A4B85
:1017BC005B68FB60FB6823F0E063FB60FB6843F055
:1017CC008063FB60044AFB68536000BF1437BD465E
:1017DC0080BC7047001002400000014080B584B00E
:1017EC0000AF78607B681B68B3F1804F13D10C4B52
:1017FC00DB690B4A43F00103D361094BDB6903F04E
:10180C000103FB60FB68002200211C2000F087FA1A
:10181C001C2000F0A0FA00BF1037BD4680BD00BFF1
:10182C000010024080B400AFFEE780B400AFFEE7CA
:10183C0080B400AFFEE780B400AFFEE780B400AF29
:10184C00FEE780B400AF00BFBD4680BC704780B4DB
:10185C0000AF00BFBD4680BC704780B400AF00BF76
:10186C00BD4680BC704780B500AF00F065F900BF85
:10187C0080BD000080B500AF024801F0C1F800BF88
:10188C0080BD00BFAC00002080B400AF00BFBD46DF
:10189C0080BC704780B582B000AF78607B681B68F5
:1018AC00B3F1804F09D100F071F8FFF713F9FEF78F
:1018BC00B1FCFEF745FCFEF7A3FE00BF0837BD46A2
:1018CC0080BD000080B483B000AF7860054B00226F
:1018DC001A60054A7B68136000BF0C37BD4680BC9C
:1018EC00704700BF780000208C00002080B483B0CB
:1018FC0000AF7860054B00221A60054A7B681360C4
:10190C0000BF0C37BD4680BC704700BF7400002080
:10191C008800002080B483B000AF7860054B0022B3
:10192C001A60054A7B68136000BF0C37BD4680BC4B
:10193C00704700BF7C0000209000002080B483B072
:10194C0000AF7860054B00221A60054A7B68136073
:10195C0000BF0C37BD4680BC704700BF8000002024
:10196C009400002080B483B000AF7860054B002257
:10197C001A60054A7B68136000BF0C37BD4680BCFB
:10198C00704700BF840000209800002080B400AF96
:10199C00294B1B68002B0BDD274B1B68013B264A90
:1019AC001360254B1B68002B02DC244B01221A60B0
:1019BC00234B1B68002B0BDD214B1B68013B204A82
:1019CC0013601F4B1B68002B02DC1E4B01221A609C
:1019DC001D4B1B68002B0BDD1B4B1B68013B1A4A74
:1019EC001360194B1B68002B02DC184B01221A6088
:1019FC00174B1B68002B0BDD154B1B68013B144A66
:101A0C001360134B1B68002B02DC124B01221A6073
:101A1C00114B1B68002B0BDD0F4B1B68013B0E4A57
:101A2C0013600D4B1B68002B02DC0C4B01221A605F
:101A3C0000BFBD4680BC70478C00002078000020A1
:101A4C008800002074000020900000207C00002002
:101A5C0094000020800000209800002084000020CA
:101A6C00FFF712FF0B480C490C4A002302E0D45834
:101A7C00C4500433C4188C42F9D3094A094C0023CE
:101A8C0001E013600432A242FBD301F0F9FAFFF734
:101A9C005DFD704700000020240000202831000864
:101AAC0024000020F8000020FEE7000080B500AF05
:101ABC00084B1B68074A43F010031360032000F027
:101ACC0023F90F2000F008F8FFF756FE0023184604
:101ADC0080BD00BF0020024080B582B000AF7860AE
:101AEC00124B1A68124B1B7819464FF47A73B3FBDE
:101AFC00F1F3B2FBF3F3184600F03BF90346002B6D
:101B0C0001D001230EE07B680F2B0AD800227968E4
:101B1C004FF0FF3000F003F9064A7B681360002396
:101B2C0000E0012318460837BD4680BD1800002090
:101B3C00200000201C00002080B400AF054B1B7857
:101B4C001A46054B1B681344034A136000BFBD467D
:101B5C0080BC704720000020F400002080B400AF4F
:101B6C00024B1B681846BD4680BC7047F400002031
:101B7C0080B485B000AF78607B6803F00703FB602E
:101B8C000C4BDB68BB60BA684FF6FF031340BB60BD
:101B9C00FB681A02BB68134343F0BF6343F4003382
:101BAC00BB60044ABB68D36000BF1437BD4680BC21
:101BBC00704700BF00ED00E080B400AF044BDB6861
:101BCC001B0A03F007031846BD4680BC704700BFD4
:101BDC0000ED00E080B483B000AF0346FB7197F9D1
:101BEC000730002B0BDBFB7903F01F02064997F93A
:101BFC0007305B09012000FA02F241F8232000BFF4
:101C0C000C37BD4680BC704700E100E080B483B067
:101C1C0000AF03463960FB7197F90730002B0ADBE4
:101C2C003B68DAB20C4997F907301201D2B20B4477
:101C3C0083F800230AE03B68DAB20849FB7903F029
:101C4C000F03043B1201D2B20B441A7600BF0C37BF
:101C5C00BD4680BC704700BF00E100E000ED00E035
:101C6C0080B489B000AFF860B9607A60FB6803F0AB
:101C7C000703FB61FB69C3F10703042B28BF042393
:101C8C00BB61FB690433062B02D9FB69033B00E003
:101C9C0000237B614FF0FF32BB6902FA03F3DA4396
:101CAC00BB681A407B699A404FF0FF317B6901FA9F
:101CBC0003F3D9437B680B40134318462437BD46C6
:101CCC0080BC704780B582B000AF78607B68013B08
:101CDC00B3F1807F01D301230FE00A4A7B68013BFB
:101CEC0053600F214FF0FF30FFF790FF054B0022A0
:101CFC009A60044B07221A60002318460837BD4629
:101D0C0080BD00BF10E000E080B582B000AF78600D
:101D1C007868FFF72DFF00BF0837BD4680BD80B542
:101D2C0086B000AF0346B9607A60FB7300237B6119
:101D3C00FFF742FF78617A68B9687869FFF790FF1E
:101D4C00024697F90F3011461846FFF75FFF00BFA8
:101D5C001837BD4680BD80B582B000AF0346FB711D
:101D6C0097F907301846FFF735FF00BF0837BD4617
:101D7C0080BD80B582B000AF78607868FFF7A2FFB5
:101D8C00034618460837BD4680BD000080B48BB0B2
:101D9C0000AF7860396000237B6200233B6248E12E
:101DAC0001227B6A02FA03F3FB613B681B68FA6948
:101DBC001340BB61BA69FB699A4240F037813B68BA
:101DCC005B68A34A93425ED0A14A934275D8A14A5C
:101DDC00934258D09F4A93426FD89F4A934252D015
:101DEC009D4A934269D89D4A93424CD09B4A934258
:101DFC0063D89B4A934246D0994A93425DD8122BA2
:101E0C002AD8122B59D801A252F823F0931E00089D
:101E1C006D1E00087F1E0008C11E0008C71E0008AA
:101E2C00C71E0008C71E0008C71E0008C71E0008F2
:101E3C00C71E0008C71E0008C71E0008C71E0008E2
:101E4C00C71E0008C71E0008C71E0008C71E0008D2
:101E5C00751E0008891E0008824A934213D02CE09C
:101E6C003B68DB683B6229E03B68DB6804333B6220
:101E7C0024E03B68DB6808333B621FE03B68DB68AF
:101E8C000C333B621AE03B689B68002B02D10423A5
:101E9C003B6213E03B689B68012B05D108233B6236
:101EAC007B68FA691A6109E008233B627B68FA696E
:101EBC005A6103E000233B6200E000BFBB69FF2BCB
:101ECC0001D87B6801E07B6804337B61BB69FF2B25
:101EDC0002D87B6A9B0002E07B6A083B9B003B615B
:101EEC007B691A680F213B6901FA03F3DB431A4043
:101EFC00396A3B6901FA03F31A437B691A603B6840
:101F0C005B6803F08053002B00F09080564B9B696C
:101F1C00554A43F001039361534B9B6903F0010352
:101F2C00BB60BB68514A7B6A9B08023352F8233072
:101F3C00FB607B6A03F003039B000F2202FA03F39E
:101F4C00DB43FA681340FB607B68494A93420DD02F
:101F5C007B68484A934207D07B68474A934201D139
:101F6C00022304E0032302E0012300E000237A6A49
:101F7C0002F0030292009340FA681343FB603B4962
:101F8C007B6A9B080233FA6841F823203B685B6844
:101F9C0003F48013002B06D0384B9A683749BB6981
:101FAC0013438B6006E0354B9A68BB69DB433349BE
:101FBC0013408B603B685B6803F40013002B06D066
:101FCC002E4BDA682D49BB691343CB6006E02B4BD3
:101FDC00DA68BB69DB4329491340CB603B685B681B
:101FEC0003F40033002B06D0244B5A682349BB69F9
:101FFC0013434B6006E0214B5A68BB69DB431F4916
:10200C0013404B603B685B6803F48033002B06D0B5
:10201C001A4B1A681949BB6913430B6006E0174B3E
:10202C001A68BB69DB43154913400B607B6A0133AB
:10203C007B623B681A687B6A22FA03F3002B7FF4FD
:10204C00AFAE00BF00BF2C37BD4680BC704700BF91
:10205C00000032100000311000002210000021108E
:10206C00000012100000111000100240000001408E
:10207C0000080140000C0140001001400004014028
:10208C0080B485B000AF78600B467B807B689A6823
:10209C007B881340002B02D00123FB7301E000234B
:1020AC00FB73FB7B18461437BD4680BC704780B46D
:1020BC0083B000AF78600B467B8013467B707B78D7
:1020CC00002B03D07A887B681A6103E07B881A04A2
:1020DC007B681A6100BF0C37BD4680BC704780B46A
:1020EC0085B000AF78600B467B807B68DB68FB605B
:1020FC007A88FB6813401A04FB68D9437B880B4031
:10210C001A437B681A6100BF1437BD4680BC704708
:10211C0080B586B000AF78607B68002B01D10123BD
:10212C006CE27B681B6803F00103002B00F08780D6
:10213C00924B5B6803F00C03042B0CD08F4B5B6849
:10214C0003F00C03082B12D18C4B5B6803F4803327
:10215C00B3F5803F0BD1894B1B6803F40033002B84
:10216C006CD07B685B68002B68D1012346E27B68EE
:10217C005B68B3F5803F06D1804B1B687F4A43F404
:10218C00803313602EE07B685B68002B0CD17B4B9B
:10219C001B687A4A23F480331360784B1B68774AA8
:1021AC0023F4802313601DE07B685B68B3F5A02FDC
:1021BC000CD1724B1B68714A43F4802313606F4B34
:1021CC001B686E4A43F4803313600BE06B4B1B6847
:1021DC006A4A23F480331360684B1B68674A23F404
:1021EC00802313607B685B68002B13D0FFF7B6FC71
:1021FC00386108E0FFF7B2FC02463B69D31A642B46
:10220C0001D90323FAE15D4B1B6803F40033002B67
:10221C00F0D014E0FFF7A2FC386108E0FFF79EFC59
:10222C0002463B69D31A642B01D90323E6E1534BD5
:10223C001B6803F40033002BF0D100E000BF7B6877
:10224C001B6803F00203002B63D04C4B5B6803F05C
:10225C000C03002B0BD0494B5B6803F00C03082BD1
:10226C001CD1464B5B6803F48033002B16D1434BD7
:10227C001B6803F00203002B05D07B681B69012B44
:10228C0001D00123BAE13D4B1B6823F0F8027B68B7
:10229C005B69DB00394913430B603AE07B681B69CF
:1022AC00002B20D0364B01221A60FFF757FC386107
:1022BC0008E0FFF753FC02463B69D31A022B01D905
:1022CC0003239BE12D4B1B6803F00203002BF0D082
:1022DC002A4B1B6823F0F8027B685B69DB002749FB
:1022EC0013430B6015E0264B00221A60FFF736FCF7
:1022FC00386108E0FFF732FC02463B69D31A022B27
:10230C0001D903237AE11D4B1B6803F00203002B58
:10231C00F0D17B681B6803F00803002B3AD07B6874
:10232C009B69002B19D0174B01221A60FFF716FC82
:10233C00386108E0FFF712FC02463B69D31A022B06
:10234C0001D903235AE10D4B5B6A03F00203002B06
:10235C00F0D0012000F09AFA1CE00A4B00221A601F
:10236C00FFF7FCFB38610FE0FFF7F8FB02463B6917
:10237C00D31A022B08D9032340E100BF00100240FE
:10238C0000004242800442429E4B5B6A03F002030F
:10239C00002BE9D17B681B6803F00403002B00F0D1
:1023AC00A6800023FB75974BDB6903F08053002B51
:1023BC000DD1944BDB69934A43F08053D361914B1D
:1023CC00DB6903F08053BB60BB680123FB758E4B4C
:1023DC001B6803F48073002B18D18B4B1B688A4A43
:1023EC0043F480731360FFF7B9FB386108E0FFF723
:1023FC00B5FB02463B69D31A642B01D90323FDE0DC
:10240C00814B1B6803F48073002BF0D07B68DB6876
:10241C00012B06D17B4B1B6A7A4A43F001031362F2
:10242C002DE07B68DB68002B0CD1764B1B6A754A60
:10243C0023F001031362734B1B6A724A23F00403EB
:10244C0013621CE07B68DB68052B0CD16D4B1B6A9F
:10245C006C4A43F0040313626A4B1B6A694A43F0EB
:10246C00010313620BE0674B1B6A664A23F00103FE
:10247C001362644B1B6A634A23F0040313627B6888
:10248C00DB68002B15D0FFF769FB38610AE0FFF71A
:10249C0065FB02463B69D31A41F28832934201D95B
:1024AC000323ABE0574B1B6A03F00203002BEED067
:1024BC0014E0FFF753FB38610AE0FFF74FFB0246CD
:1024CC003B69D31A41F28832934201D9032395E038
:1024DC004C4B1B6A03F00203002BEED1FB7D012B4E
:1024EC0005D1484BDB69474A23F08053D3617B68A5
:1024FC00DB69002B00F08180424B5B6803F00C031E
:10250C00082B61D07B68DB69022B46D13F4B002244
:10251C001A60FFF723FB386108E0FFF71FFB024648
:10252C003B69D31A022B01D9032367E0354B1B6897
:10253C0003F00073002BF0D17B681B6AB3F5803F6E
:10254C0008D1304B5B6823F400327B689B682D49C3
:10255C0013434B602B4B5B6823F474127B68196A32
:10256C007B685B6A0B43274913434B60274B012263
:10257C001A60FFF7F3FA386108E0FFF7EFFA02464A
:10258C003B69D31A022B01D9032337E01D4B1B687F
:10259C0003F00073002BF0D02FE01C4B00221A60CC
:1025AC00FFF7DCFA386108E0FFF7D8FA02463B691E
:1025BC00D31A022B01D9032320E0124B1B6803F022
:1025CC000073002BF0D118E07B68DB69012B01D183
:1025DC00012313E00B4B5B68FB60FB6803F4803258
:1025EC007B681B6A9A4206D1FB6803F470127B6805
:1025FC005B6A9A4201D0012300E000231846183789
:10260C00BD4680BD00100240007000406000424298
:10261C0080B584B000AF786039607B68002B01D145
:10262C000123D0E06A4B1B6803F007033A689A4217
:10263C0010D9674B1B6823F0070265493B681343AD
:10264C000B60634B1B6803F007033A689A4201D096
:10265C000123B8E07B681B6803F00203002B20D039
:10266C007B681B6803F00403002B05D0594B5B6897
:10267C00584A43F4E06353607B681B6803F008031B
:10268C00002B05D0534B5B68524A43F460535360A4
:10269C00504B5B6823F0F0027B689B684D491343F9
:1026AC004B607B681B6803F00103002B40D07B68F8
:1026BC005B68012B07D1474B1B6803F40033002BDD
:1026CC0015D101237FE07B685B68022B07D1414B5E
:1026DC001B6803F00073002B09D1012373E03D4B01
:1026EC001B6803F00203002B01D101236BE0394B73
:1026FC005B6823F003027B685B68364913434B60CD
:10270C00FFF72CFAF8600AE0FFF728FA0246FB689C
:10271C00D31A41F28832934201D9032353E02D4B53
:10272C005B6803F00C027B685B689B009A42EBD100
:10273C00274B1B6803F007033A689A4210D2244BCC
:10274C001B6823F0070222493B6813430B60204BA4
:10275C001B6803F007033A689A4201D0012332E068
:10276C007B681B6803F00403002B08D0194B5B68D3
:10277C0023F4E0627B68DB68164913434B607B688B
:10278C001B6803F00803002B09D0124B5B6823F481
:10279C0060527B681B69DB000E4913434B6000F0F1
:1027AC0021F802460B4B5B681B0903F00F030A4927
:1027BC00CB5C22FA03F3094A1360094B1B681846D9
:1027CC00FFF78AF9002318461037BD4680BD00BFBD
:1027DC000020024000100240FC30000818000020CD
:1027EC001C00002080B487B000AF0023FB600023E6
:1027FC00BB6000237B6100237B6000233B611E4B8D
:10280C005B68FB60FB6803F00C03042B02D0082B05
:10281C0003D027E0194B3B6127E0FB689B0C03F0CE
:10282C000F03174AD35C7B60FB6803F48033002BE7
:10283C0010D0114B5B685B0C03F00103114AD35CA5
:10284C00BB607B680D4A02FB03F2BB68B2FBF3F37F
:10285C007B6104E07B680C4A02FB03F37B617B69C0
:10286C003B6102E0054B3B6100BF3B6918461C37DE
:10287C00BD4680BC704700BF0010024000127A00B9
:10288C000C3100081C31000800093D0080B485B0F3
:10289C0000AF78600A4B1B680A4AA2FB03235B0A51
:1028AC007A6802FB03F3FB6000BFFB685A1EFA60F8
:1028BC00002BF9D100BF00BF1437BD4680BC704758
:1028CC0018000020D34D621080B582B000AF786044
:1028DC007B68002B01D1012341E07B6893F83D30EC
:1028EC00DBB2002B06D17B68002283F83C20786891
:1028FC00FEF774FF7B68022283F83D207B681A6820
:10290C007B6804331946104600F056FA7B680122A6
:10291C0083F846207B68012283F83E207B680122E5
:10292C0083F83F207B68012283F840207B680122DA
:10293C0083F841207B68012283F842207B680122C6
:10294C0083F843207B68012283F844207B680122B2
:10295C0083F845207B68012283F83D20002318462C
:10296C000837BD4680BD000080B485B000AF7860EC
:10297C007B6893F83D30DBB2012B01D0012335E0AD
:10298C007B68022283F83D207B681B68DA687B68D1
:10299C001B6842F00102DA607B681B68164A93429E
:1029AC0009D07B681B68B3F1804F04D07B681B682F
:1029BC00124A934211D17B681B689B6803F0070392
:1029CC00FB60FB68062B10D07B681B681A687B6861
:1029DC001B6842F001021A6007E07B681B681A68EA
:1029EC007B681B6842F001021A60002318461437FA
:1029FC00BD4680BC704700BF002C01400004004065
:102A0C0080B584B000AF78607B681B68DB68FB60C6
:102A1C007B681B681B69BB60BB6803F00203002B5F
:102A2C0020D0FB6803F00203002B1BD07B681B68D3
:102A3C006FF002021A617B6801221A777B681B68AF
:102A4C009B6903F00303002B03D0786800F098F91E
:102A5C0005E0786800F08BF9786800F09AF97B68EB
:102A6C0000221A77BB6803F00403002B20D0FB680C
:102A7C0003F00403002B1BD07B681B686FF004026F
:102A8C001A617B6802221A777B681B689B6903F4C6
:102A9C004073002B03D0786800F072F905E0786879
:102AAC0000F065F9786800F074F97B6800221A77F9
:102ABC00BB6803F00803002B20D0FB6803F008036D
:102ACC00002B1BD07B681B686FF008021A617B68B7
:102ADC0004221A777B681B68DB6903F00303002B65
:102AEC0003D0786800F04CF905E0786800F03FF905
:102AFC00786800F04EF97B6800221A77BB6803F007
:102B0C001003002B20D0FB6803F01003002B1BD00C
:102B1C007B681B686FF010021A617B6808221A77B9
:102B2C007B681B68DB6903F44073002B03D0786867
:102B3C0000F026F905E0786800F019F9786800F0E3
:102B4C0028F97B6800221A77BB6803F00103002B7D
:102B5C000CD0FB6803F00103002B07D07B681B68CB
:102B6C006FF001021A617868FEF794FEBB6803F0FF
:102B7C008003002B0CD0FB6803F08003002B07D0E4
:102B8C007B681B686FF080021A61786800F06FFA3E
:102B9C00BB6803F04003002B0CD0FB6803F0400330
:102BAC00002B07D07B681B686FF040021A617868B5
:102BBC0000F0F8F8BB6803F02003002B0CD0FB6886
:102BCC0003F02003002B07D07B681B686FF02002FA
:102BDC001A61786800F042FA00BF1037BD4680BD1C
:102BEC0080B584B000AF786039600023FB737B68DC
:102BFC0093F83C30012B01D10223B4E07B68012215
:102C0C0083F83C207B68022283F83D207B681B689C
:102C1C009B68BB60BB6823F07703BB60BB6823F485
:102C2C007F43BB607B681B68BA689A603B681B6813
:102C3C00B3F5005F3ED0B3F5005F00F28780B3F5CB
:102C4C00805F00F08680B3F5805F7FD8702B1AD040
:102C5C00702B7BD8602B50D0602B77D8502B3CD06E
:102C6C00502B73D8402B58D0402B6FD8302B64D0BE
:102C7C00302B6BD8202B60D0202B67D8002B5CD04E
:102C8C00102B5AD062E07B6818683B6899683B68E7
:102C9C005A683B68DB6800F06AF97B681B689B68C4
:102CAC00BB60BB6843F07703BB607B681B68BA688A
:102CBC009A604FE07B6818683B6899683B685A6873
:102CCC003B68DB6800F053F97B681B689A687B688B
:102CDC001B6842F480429A603CE07B6818683B6851
:102CEC0059683B68DB681A4600F0CAF87B681B68B9
:102CFC005021184600F021F92CE07B6818683B68DD
:102D0C0059683B68DB681A4600F0E8F87B681B687A
:102D1C006021184600F011F91CE07B6818683B68CC
:102D2C0059683B68DB681A4600F0AAF87B681B6898
:102D3C004021184600F001F90CE07B681A683B68EA
:102D4C001B681946104600F0F8F803E00123FB73EA
:102D5C0000E000BF7B68012283F83D207B680022E5
:102D6C0083F83C20FB7B18461037BD4680BD80B4F1
:102D7C0083B000AF786000BF0C37BD4680BC704795
:102D8C0080B483B000AF786000BF0C37BD4680BC08
:102D9C00704780B483B000AF786000BF0C37BD467D
:102DAC0080BC704780B483B000AF786000BF0C3734
:102DBC00BD4680BC7047000080B485B000AF786021
:102DCC0039607B681B68FB607B682B4A934207D099
:102DDC007B68B3F1804F03D07B68284A934208D1BB
:102DEC00FB6823F07003FB603B685B68FA68134375
:102DFC00FB607B68204A934207D07B68B3F1804F1D
:102E0C0003D07B681D4A934208D1FB6823F44073BE
:102E1C00FB603B68DB68FA681343FB60FB6823F0DC
:102E2C0080023B685B691343FB607B68FA681A603D
:102E3C003B689A687B68DA623B681A687B689A62BE
:102E4C007B680D4A934203D13B681A697B681A630D
:102E5C007B6801225A617B681B6903F00103002B1C
:102E6C0005D07B681B6923F001027B681A6100BFE7
:102E7C001437BD4680BC7047002C01400004004054
:102E8C0080B487B000AFF860B9607A60FB681B6AE9
:102E9C007B61FB681B6A23F00102FB681A62FB680A
:102EAC009B693B613B6923F0F0033B617B681B0131
:102EBC003A6913433B617B6923F00A037B617A69AE
:102ECC00BB6813437B61FB683A699A61FB687A695A
:102EDC001A6200BF1C37BD4680BC704780B487B0F7
:102EEC0000AFF860B9607A60FB681B6A7B61FB68B5
:102EFC001B6A23F01002FB681A62FB689B693B613A
:102F0C003B6923F470433B617B681B033A691343B1
:102F1C003B617B6923F0A0037B61BB681B017A6971
:102F2C0013437B61FB683A699A61FB687A691A62A0
:102F3C0000BF1C37BD4680BC704780B485B000AF65
:102F4C00786039607B689B68FB60FB6823F07003DA
:102F5C00FB603A68FB68134343F00703FB607B6834
:102F6C00FA689A6000BF1437BD4680BC704780B4C5
:102F7C0087B000AFF860B9607A603B60FB689B6813
:102F8C007B617B6923F47F437B613B681A027B681E
:102F9C001A43BB6813437A6913437B61FB687A69F4
:102FAC009A6000BF1C37BD4680BC704780B485B0AA
:102FBC0000AF786039607B6893F83C30012B01D10D
:102FCC00022341E07B68012283F83C207B680222CB
:102FDC0083F83D207B681B685B68FB607B681B6823
:102FEC009B68BB60FB6823F07003FB603B681B684D
:102FFC00FA681343FB607B681B68FA685A607B684D
:10300C001B68144A934209D07B681B68B3F1804F4C
:10301C0004D07B681B68104A93420CD1BB6823F028
:10302C008003BB603B685B68BA681343BB607B681A
:10303C001B68BA689A607B68012283F83D207B6824
:10304C00002283F83C20002318461437BD4680BC70
:10305C00704700BF002C01400004004080B483B0D6
:10306C0000AF786000BF0C37BD4680BC704780B4A1
:10307C0083B000AF786000BF0C37BD4680BC704792
:10308C0070B500260C4D0D4C641BA410A64209D142
:10309C0000F022F800260A4D0A4C641BA410A6422C
:1030AC0005D170BD55F8043B98470136EEE755F84D
:1030BC00043B98470136F2E7203100082031000824
:1030CC00203100082431000803460244934200D109
:1030DC00704703F8011BF9E7F8B500BFF8BC08BC52
:1030EC009E467047F8B500BFF8BC08BC9E467047BA
:1030FC00000000000000000001020304060708099C
:10310C0002030405060708090A0B0C0D0E0F10101C
:04311C0001020000AC
:043120003101000871
:043124000D01000891
:103128000100000001000000140000001100000070
:10313800030000000100000000127A0010000000E7
:043148000100000082
:0400000508001A6D68
:00000001FF
